04111111111111123456789000123456789000DESCX               10.11     
04444444444444143456789000123456789000DESCXXXXXX          20.40     
09999999999999193456789000123456789000DESCX       XXXXXXXX42.44     
08888888888888183456789000123456789000DESCX               12.67     
07777777777777173456789000123456789000DESCX   XXXXXXX     54.22     
06666666666666163456789000123456789000DESCX         XXX   32.78     
05555555555555153456789000123456789000DESCX               54.78     
03333333333333133456789000123456789000DESCX               21.22     
02222222222222103456789000123456789000DESCXXXXXXXXXXXXXXXX20.33     
01111111111111113456789000123456789000DESCX               78.32     
00000000000000003456789000123456789000DESCX  X            26.14     
07777777777777777456789000123456789000DESCX       X       57.76     
